{
  "_format": "hh-sol-artifact-1",
  "contractName": "PassNFT",
  "sourceName": "contracts/PassNFT.sol",
  "abi": [
    {
      "inputs": [],
      "stateMutability": "nonpayable",
      "type": "constructor"
    },
    {
      "inputs": [
        {
          "internalType": "address",
          "name": "sender",
          "type": "address"
        },
        {
          "internalType": "uint256",
          "name": "tokenId",
          "type": "uint256"
        },
        {
          "internalType": "address",
          "name": "owner",
          "type": "address"
        }
      ],
      "name": "ERC721IncorrectOwner",
      "type": "error"
    },
    {
      "inputs": [
        {
          "internalType": "address",
          "name": "operator",
          "type": "address"
        },
        {
          "internalType": "uint256",
          "name": "tokenId",
          "type": "uint256"
        }
      ],
      "name": "ERC721InsufficientApproval",
      "type": "error"
    },
    {
      "inputs": [
        {
          "internalType": "address",
          "name": "approver",
          "type": "address"
        }
      ],
      "name": "ERC721InvalidApprover",
      "type": "error"
    },
    {
      "inputs": [
        {
          "internalType": "address",
          "name": "operator",
          "type": "address"
        }
      ],
      "name": "ERC721InvalidOperator",
      "type": "error"
    },
    {
      "inputs": [
        {
          "internalType": "address",
          "name": "owner",
          "type": "address"
        }
      ],
      "name": "ERC721InvalidOwner",
      "type": "error"
    },
    {
      "inputs": [
        {
          "internalType": "address",
          "name": "receiver",
          "type": "address"
        }
      ],
      "name": "ERC721InvalidReceiver",
      "type": "error"
    },
    {
      "inputs": [
        {
          "internalType": "address",
          "name": "sender",
          "type": "address"
        }
      ],
      "name": "ERC721InvalidSender",
      "type": "error"
    },
    {
      "inputs": [
        {
          "internalType": "uint256",
          "name": "tokenId",
          "type": "uint256"
        }
      ],
      "name": "ERC721NonexistentToken",
      "type": "error"
    },
    {
      "inputs": [
        {
          "internalType": "address",
          "name": "owner",
          "type": "address"
        }
      ],
      "name": "OwnableInvalidOwner",
      "type": "error"
    },
    {
      "inputs": [
        {
          "internalType": "address",
          "name": "account",
          "type": "address"
        }
      ],
      "name": "OwnableUnauthorizedAccount",
      "type": "error"
    },
    {
      "anonymous": false,
      "inputs": [
        {
          "indexed": true,
          "internalType": "address",
          "name": "owner",
          "type": "address"
        },
        {
          "indexed": true,
          "internalType": "address",
          "name": "approved",
          "type": "address"
        },
        {
          "indexed": true,
          "internalType": "uint256",
          "name": "tokenId",
          "type": "uint256"
        }
      ],
      "name": "Approval",
      "type": "event"
    },
    {
      "anonymous": false,
      "inputs": [
        {
          "indexed": true,
          "internalType": "address",
          "name": "owner",
          "type": "address"
        },
        {
          "indexed": true,
          "internalType": "address",
          "name": "operator",
          "type": "address"
        },
        {
          "indexed": false,
          "internalType": "bool",
          "name": "approved",
          "type": "bool"
        }
      ],
      "name": "ApprovalForAll",
      "type": "event"
    },
    {
      "anonymous": false,
      "inputs": [
        {
          "indexed": true,
          "internalType": "address",
          "name": "previousOwner",
          "type": "address"
        },
        {
          "indexed": true,
          "internalType": "address",
          "name": "newOwner",
          "type": "address"
        }
      ],
      "name": "OwnershipTransferred",
      "type": "event"
    },
    {
      "anonymous": false,
      "inputs": [
        {
          "indexed": true,
          "internalType": "address",
          "name": "from",
          "type": "address"
        },
        {
          "indexed": true,
          "internalType": "address",
          "name": "to",
          "type": "address"
        },
        {
          "indexed": true,
          "internalType": "uint256",
          "name": "tokenId",
          "type": "uint256"
        }
      ],
      "name": "Transfer",
      "type": "event"
    },
    {
      "inputs": [
        {
          "internalType": "address",
          "name": "to",
          "type": "address"
        },
        {
          "internalType": "uint256",
          "name": "tokenId",
          "type": "uint256"
        }
      ],
      "name": "approve",
      "outputs": [],
      "stateMutability": "nonpayable",
      "type": "function"
    },
    {
      "inputs": [
        {
          "internalType": "address",
          "name": "owner",
          "type": "address"
        }
      ],
      "name": "balanceOf",
      "outputs": [
        {
          "internalType": "uint256",
          "name": "",
          "type": "uint256"
        }
      ],
      "stateMutability": "view",
      "type": "function"
    },
    {
      "inputs": [
        {
          "internalType": "uint256",
          "name": "tokenId",
          "type": "uint256"
        }
      ],
      "name": "burn",
      "outputs": [],
      "stateMutability": "nonpayable",
      "type": "function"
    },
    {
      "inputs": [],
      "name": "getAllPasses",
      "outputs": [
        {
          "components": [
            {
              "internalType": "uint256",
              "name": "passId",
              "type": "uint256"
            },
            {
              "internalType": "string",
              "name": "pass_type",
              "type": "string"
            },
            {
              "internalType": "uint256",
              "name": "price_wei",
              "type": "uint256"
            },
            {
              "internalType": "uint256",
              "name": "points",
              "type": "uint256"
            },
            {
              "internalType": "bool",
              "name": "exists",
              "type": "bool"
            }
          ],
          "internalType": "struct PassNFT.PassInfo[]",
          "name": "",
          "type": "tuple[]"
        }
      ],
      "stateMutability": "view",
      "type": "function"
    },
    {
      "inputs": [
        {
          "internalType": "uint256",
          "name": "tokenId",
          "type": "uint256"
        }
      ],
      "name": "getApproved",
      "outputs": [
        {
          "internalType": "address",
          "name": "",
          "type": "address"
        }
      ],
      "stateMutability": "view",
      "type": "function"
    },
    {
      "inputs": [
        {
          "internalType": "uint256",
          "name": "passId",
          "type": "uint256"
        }
      ],
      "name": "getPass",
      "outputs": [
        {
          "components": [
            {
              "internalType": "uint256",
              "name": "passId",
              "type": "uint256"
            },
            {
              "internalType": "string",
              "name": "pass_type",
              "type": "string"
            },
            {
              "internalType": "uint256",
              "name": "price_wei",
              "type": "uint256"
            },
            {
              "internalType": "uint256",
              "name": "points",
              "type": "uint256"
            },
            {
              "internalType": "bool",
              "name": "exists",
              "type": "bool"
            }
          ],
          "internalType": "struct PassNFT.PassInfo",
          "name": "",
          "type": "tuple"
        }
      ],
      "stateMutability": "view",
      "type": "function"
    },
    {
      "inputs": [],
      "name": "getPassCount",
      "outputs": [
        {
          "internalType": "uint256",
          "name": "",
          "type": "uint256"
        }
      ],
      "stateMutability": "view",
      "type": "function"
    },
    {
      "inputs": [
        {
          "internalType": "address",
          "name": "user",
          "type": "address"
        }
      ],
      "name": "getUserPass",
      "outputs": [
        {
          "internalType": "uint256",
          "name": "passId",
          "type": "uint256"
        },
        {
          "internalType": "uint256",
          "name": "points",
          "type": "uint256"
        }
      ],
      "stateMutability": "view",
      "type": "function"
    },
    {
      "inputs": [
        {
          "internalType": "address",
          "name": "owner",
          "type": "address"
        },
        {
          "internalType": "address",
          "name": "operator",
          "type": "address"
        }
      ],
      "name": "isApprovedForAll",
      "outputs": [
        {
          "internalType": "bool",
          "name": "",
          "type": "bool"
        }
      ],
      "stateMutability": "view",
      "type": "function"
    },
    {
      "inputs": [
        {
          "internalType": "uint256",
          "name": "passId",
          "type": "uint256"
        }
      ],
      "name": "mint",
      "outputs": [],
      "stateMutability": "payable",
      "type": "function"
    },
    {
      "inputs": [],
      "name": "name",
      "outputs": [
        {
          "internalType": "string",
          "name": "",
          "type": "string"
        }
      ],
      "stateMutability": "view",
      "type": "function"
    },
    {
      "inputs": [],
      "name": "nextTokenId",
      "outputs": [
        {
          "internalType": "uint256",
          "name": "",
          "type": "uint256"
        }
      ],
      "stateMutability": "view",
      "type": "function"
    },
    {
      "inputs": [],
      "name": "owner",
      "outputs": [
        {
          "internalType": "address",
          "name": "",
          "type": "address"
        }
      ],
      "stateMutability": "view",
      "type": "function"
    },
    {
      "inputs": [
        {
          "internalType": "uint256",
          "name": "tokenId",
          "type": "uint256"
        }
      ],
      "name": "ownerOf",
      "outputs": [
        {
          "internalType": "address",
          "name": "",
          "type": "address"
        }
      ],
      "stateMutability": "view",
      "type": "function"
    },
    {
      "inputs": [
        {
          "internalType": "uint256",
          "name": "",
          "type": "uint256"
        }
      ],
      "name": "passIds",
      "outputs": [
        {
          "internalType": "uint256",
          "name": "",
          "type": "uint256"
        }
      ],
      "stateMutability": "view",
      "type": "function"
    },
    {
      "inputs": [
        {
          "internalType": "uint256",
          "name": "",
          "type": "uint256"
        }
      ],
      "name": "passes",
      "outputs": [
        {
          "internalType": "uint256",
          "name": "passId",
          "type": "uint256"
        },
        {
          "internalType": "string",
          "name": "pass_type",
          "type": "string"
        },
        {
          "internalType": "uint256",
          "name": "price_wei",
          "type": "uint256"
        },
        {
          "internalType": "uint256",
          "name": "points",
          "type": "uint256"
        },
        {
          "internalType": "bool",
          "name": "exists",
          "type": "bool"
        }
      ],
      "stateMutability": "view",
      "type": "function"
    },
    {
      "inputs": [],
      "name": "renounceOwnership",
      "outputs": [],
      "stateMutability": "nonpayable",
      "type": "function"
    },
    {
      "inputs": [
        {
          "internalType": "address",
          "name": "from",
          "type": "address"
        },
        {
          "internalType": "address",
          "name": "to",
          "type": "address"
        },
        {
          "internalType": "uint256",
          "name": "tokenId",
          "type": "uint256"
        }
      ],
      "name": "safeTransferFrom",
      "outputs": [],
      "stateMutability": "nonpayable",
      "type": "function"
    },
    {
      "inputs": [
        {
          "internalType": "address",
          "name": "from",
          "type": "address"
        },
        {
          "internalType": "address",
          "name": "to",
          "type": "address"
        },
        {
          "internalType": "uint256",
          "name": "tokenId",
          "type": "uint256"
        },
        {
          "internalType": "bytes",
          "name": "data",
          "type": "bytes"
        }
      ],
      "name": "safeTransferFrom",
      "outputs": [],
      "stateMutability": "nonpayable",
      "type": "function"
    },
    {
      "inputs": [
        {
          "internalType": "address",
          "name": "operator",
          "type": "address"
        },
        {
          "internalType": "bool",
          "name": "approved",
          "type": "bool"
        }
      ],
      "name": "setApprovalForAll",
      "outputs": [],
      "stateMutability": "nonpayable",
      "type": "function"
    },
    {
      "inputs": [
        {
          "internalType": "uint256",
          "name": "passId",
          "type": "uint256"
        },
        {
          "internalType": "string",
          "name": "pass_type",
          "type": "string"
        },
        {
          "internalType": "uint256",
          "name": "priceInWei",
          "type": "uint256"
        },
        {
          "internalType": "uint256",
          "name": "points",
          "type": "uint256"
        }
      ],
      "name": "setPassDetails",
      "outputs": [],
      "stateMutability": "nonpayable",
      "type": "function"
    },
    {
      "inputs": [
        {
          "internalType": "bytes4",
          "name": "interfaceId",
          "type": "bytes4"
        }
      ],
      "name": "supportsInterface",
      "outputs": [
        {
          "internalType": "bool",
          "name": "",
          "type": "bool"
        }
      ],
      "stateMutability": "view",
      "type": "function"
    },
    {
      "inputs": [],
      "name": "symbol",
      "outputs": [
        {
          "internalType": "string",
          "name": "",
          "type": "string"
        }
      ],
      "stateMutability": "view",
      "type": "function"
    },
    {
      "inputs": [
        {
          "internalType": "uint256",
          "name": "tokenId",
          "type": "uint256"
        }
      ],
      "name": "tokenURI",
      "outputs": [
        {
          "internalType": "string",
          "name": "",
          "type": "string"
        }
      ],
      "stateMutability": "view",
      "type": "function"
    },
    {
      "inputs": [
        {
          "internalType": "address",
          "name": "from",
          "type": "address"
        },
        {
          "internalType": "address",
          "name": "to",
          "type": "address"
        },
        {
          "internalType": "uint256",
          "name": "tokenId",
          "type": "uint256"
        }
      ],
      "name": "transferFrom",
      "outputs": [],
      "stateMutability": "nonpayable",
      "type": "function"
    },
    {
      "inputs": [
        {
          "internalType": "address",
          "name": "newOwner",
          "type": "address"
        }
      ],
      "name": "transferOwnership",
      "outputs": [],
      "stateMutability": "nonpayable",
      "type": "function"
    },
    {
      "inputs": [
        {
          "internalType": "uint256",
          "name": "newPassId",
          "type": "uint256"
        }
      ],
      "name": "upgrade",
      "outputs": [],
      "stateMutability": "payable",
      "type": "function"
    },
    {
      "inputs": [
        {
          "internalType": "address",
          "name": "",
          "type": "address"
        }
      ],
      "name": "userCurrentPass",
      "outputs": [
        {
          "internalType": "uint256",
          "name": "",
          "type": "uint256"
        }
      ],
      "stateMutability": "view",
      "type": "function"
    },
    {
      "inputs": [],
      "name": "withdraw",
      "outputs": [],
      "stateMutability": "nonpayable",
      "type": "function"
    }
  ],
  "bytecode": "0x608060405260016007553480156200001657600080fd5b50336040518060400160405280600c81526020017f4469676944726f705061737300000000000000000000000000000000000000008152506040518060400160405280600881526020017f4449474950415353000000000000000000000000000000000000000000000000815250816000908162000095919062000477565b508060019081620000a7919062000477565b505050600073ffffffffffffffffffffffffffffffffffffffff168173ffffffffffffffffffffffffffffffffffffffff16036200011f5760006040517f1e4fbdf7000000000000000000000000000000000000000000000000000000008152600401620001169190620005a3565b60405180910390fd5b62000130816200013760201b60201c565b50620005c0565b6000600660009054906101000a900473ffffffffffffffffffffffffffffffffffffffff16905081600660006101000a81548173ffffffffffffffffffffffffffffffffffffffff021916908373ffffffffffffffffffffffffffffffffffffffff1602179055508173ffffffffffffffffffffffffffffffffffffffff168173ffffffffffffffffffffffffffffffffffffffff167f8be0079c531659141344cd1fd0a4f28419497f9722a3daafe3b4186f6b6457e060405160405180910390a35050565b600081519050919050565b7f4e487b7100000000000000000000000000000000000000000000000000000000600052604160045260246000fd5b7f4e487b7100000000000000000000000000000000000000000000000000000000600052602260045260246000fd5b600060028204905060018216806200027f57607f821691505b60208210810362000295576200029462000237565b5b50919050565b60008190508160005260206000209050919050565b60006020601f8301049050919050565b600082821b905092915050565b600060088302620002ff7fffffffffffffffffffffffffffffffffffffffffffffffffffffffffffffffff82620002c0565b6200030b8683620002c0565b95508019841693508086168417925050509392505050565b6000819050919050565b6000819050919050565b600062000358620003526200034c8462000323565b6200032d565b62000323565b9050919050565b6000819050919050565b620003748362000337565b6200038c62000383826200035f565b848454620002cd565b825550505050565b600090565b620003a362000394565b620003b081848462000369565b505050565b5b81811015620003d857620003cc60008262000399565b600181019050620003b6565b5050565b601f8211156200042757620003f1816200029b565b620003fc84620002b0565b810160208510156200040c578190505b620004246200041b85620002b0565b830182620003b5565b50505b505050565b600082821c905092915050565b60006200044c600019846008026200042c565b1980831691505092915050565b600062000467838362000439565b9150826002028217905092915050565b6200048282620001fd565b67ffffffffffffffff8111156200049e576200049d62000208565b5b620004aa825462000266565b620004b7828285620003dc565b600060209050601f831160018114620004ef5760008415620004da578287015190505b620004e6858262000459565b86555062000556565b601f198416620004ff866200029b565b60005b82811015620005295784890151825560018201915060208501945060208101905062000502565b8683101562000549578489015162000545601f89168262000439565b8355505b6001600288020188555050505b505050505050565b600073ffffffffffffffffffffffffffffffffffffffff82169050919050565b60006200058b826200055e565b9050919050565b6200059d816200057e565b82525050565b6000602082019050620005ba600083018462000592565b92915050565b613d6b80620005d06000396000f3fe6080604052600436106101c25760003560e01c80636e321ce4116100f7578063a0712d6811610095578063b88d4fde11610064578063b88d4fde1461064f578063c87b56dd14610678578063e985e9c5146106b5578063f2fde38b146106f2576101c2565b8063a0712d68146105a2578063a22cb465146105be578063a231c2fb146105e7578063adaeb68b14610612576101c2565b806375794a3c116100d157806375794a3c146104e357806377a780971461050e5780638da5cb5b1461054c57806395d89b4114610577576101c2565b80636e321ce41461044e57806370a082311461048f578063715018a6146104cc576101c2565b80633ccfd60b1161016457806345977d031161013e57806345977d031461038d57806348ef6c8c146103a957806355a6f86f146103d45780636352211e14610411576101c2565b80633ccfd60b1461032457806342842e0e1461033b57806342966c6814610364576101c2565b8063081812fc116101a0578063081812fc14610258578063095ea7b31461029557806323b872dd146102be57806331e007d0146102e7576101c2565b806301ffc9a7146101c757806306e5f81d1461020457806306fdde031461022d575b600080fd5b3480156101d357600080fd5b506101ee60048036038101906101e99190612a60565b61071b565b6040516101fb9190612aa8565b60405180910390f35b34801561021057600080fd5b5061022b60048036038101906102269190612b5e565b6107fd565b005b34801561023957600080fd5b506102426109bf565b60405161024f9190612c76565b60405180910390f35b34801561026457600080fd5b5061027f600480360381019061027a9190612c98565b610a51565b60405161028c9190612d06565b60405180910390f35b3480156102a157600080fd5b506102bc60048036038101906102b79190612d4d565b610a6d565b005b3480156102ca57600080fd5b506102e560048036038101906102e09190612d8d565b610a83565b005b3480156102f357600080fd5b5061030e60048036038101906103099190612c98565b610b85565b60405161031b9190612def565b60405180910390f35b34801561033057600080fd5b50610339610ba9565b005b34801561034757600080fd5b50610362600480360381019061035d9190612d8d565b610c01565b005b34801561037057600080fd5b5061038b60048036038101906103869190612c98565b610c21565b005b6103a760048036038101906103a29190612c98565b610c38565b005b3480156103b557600080fd5b506103be610fa4565b6040516103cb9190612def565b60405180910390f35b3480156103e057600080fd5b506103fb60048036038101906103f69190612c98565b610fb1565b6040516104089190612ee8565b60405180910390f35b34801561041d57600080fd5b5061043860048036038101906104339190612c98565b61110c565b6040516104459190612d06565b60405180910390f35b34801561045a57600080fd5b5061047560048036038101906104709190612c98565b61111e565b604051610486959493929190612f0a565b60405180910390f35b34801561049b57600080fd5b506104b660048036038101906104b19190612f64565b6111e9565b6040516104c39190612def565b60405180910390f35b3480156104d857600080fd5b506104e16112a3565b005b3480156104ef57600080fd5b506104f86112b7565b6040516105059190612def565b60405180910390f35b34801561051a57600080fd5b5061053560048036038101906105309190612f64565b6112bd565b604051610543929190612f91565b60405180910390f35b34801561055857600080fd5b50610561611355565b60405161056e9190612d06565b60405180910390f35b34801561058357600080fd5b5061058c61137f565b6040516105999190612c76565b60405180910390f35b6105bc60048036038101906105b79190612c98565b611411565b005b3480156105ca57600080fd5b506105e560048036038101906105e09190612fe6565b6116f4565b005b3480156105f357600080fd5b506105fc61170a565b604051610609919061315e565b60405180910390f35b34801561061e57600080fd5b5061063960048036038101906106349190612f64565b6118b3565b6040516106469190612def565b60405180910390f35b34801561065b57600080fd5b50610676600480360381019061067191906132b0565b6118cb565b005b34801561068457600080fd5b5061069f600480360381019061069a9190612c98565b6118f0565b6040516106ac9190612c76565b60405180910390f35b3480156106c157600080fd5b506106dc60048036038101906106d79190613333565b611959565b6040516106e99190612aa8565b60405180910390f35b3480156106fe57600080fd5b5061071960048036038101906107149190612f64565b6119ed565b005b60007f80ac58cd000000000000000000000000000000000000000000000000000000007bffffffffffffffffffffffffffffffffffffffffffffffffffffffff1916827bffffffffffffffffffffffffffffffffffffffffffffffffffffffff191614806107e657507f5b5e139f000000000000000000000000000000000000000000000000000000007bffffffffffffffffffffffffffffffffffffffffffffffffffffffff1916827bffffffffffffffffffffffffffffffffffffffffffffffffffffffff1916145b806107f657506107f582611a73565b5b9050919050565b610805611add565b60008511610848576040517f08c379a000000000000000000000000000000000000000000000000000000000815260040161083f906133bf565b60405180910390fd5b6000848490501161088e576040517f08c379a00000000000000000000000000000000000000000000000000000000081526004016108859061342b565b60405180910390fd5b6008600086815260200190815260200160002060040160009054906101000a900460ff166108e05760098590806001815401808255809150506001900390600052602060002001600090919091909150555b6040518060a0016040528086815260200185858080601f016020809104026020016040519081016040528093929190818152602001838380828437600081840152601f19601f82011690508083019250505050505050815260200183815260200182815260200160011515815250600860008781526020019081526020016000206000820151816000015560208201518160010190816109809190613657565b50604082015181600201556060820151816003015560808201518160040160006101000a81548160ff0219169083151502179055509050505050505050565b6060600080546109ce9061347a565b80601f01602080910402602001604051908101604052809291908181526020018280546109fa9061347a565b8015610a475780601f10610a1c57610100808354040283529160200191610a47565b820191906000526020600020905b815481529060010190602001808311610a2a57829003601f168201915b5050505050905090565b6000610a5c82611b64565b50610a6682611bec565b9050919050565b610a7f8282610a7a611c29565b611c31565b5050565b600073ffffffffffffffffffffffffffffffffffffffff168273ffffffffffffffffffffffffffffffffffffffff1603610af55760006040517f64a0ae92000000000000000000000000000000000000000000000000000000008152600401610aec9190612d06565b60405180910390fd5b6000610b098383610b04611c29565b611c43565b90508373ffffffffffffffffffffffffffffffffffffffff168173ffffffffffffffffffffffffffffffffffffffff1614610b7f578382826040517f64283d7b000000000000000000000000000000000000000000000000000000008152600401610b7693929190613729565b60405180910390fd5b50505050565b60098181548110610b9557600080fd5b906000526020600020016000915090505481565b610bb1611add565b610bb9611355565b73ffffffffffffffffffffffffffffffffffffffff166108fc479081150290604051600060405180830381858888f19350505050158015610bfe573d6000803e3d6000fd5b50565b610c1c838383604051806020016040528060008152506118cb565b505050565b610c34600082610c2f611c29565b611c43565b5050565b6000600a60003373ffffffffffffffffffffffffffffffffffffffff1673ffffffffffffffffffffffffffffffffffffffff16815260200190815260200160002054905060008103610cbf576040517f08c379a0000000000000000000000000000000000000000000000000000000008152600401610cb6906137ac565b60405180910390fd5b6000600b60008381526020019081526020016000205490506000600860008581526020019081526020016000206040518060a001604052908160008201548152602001600182018054610d119061347a565b80601f0160208091040260200160405190810160405280929190818152602001828054610d3d9061347a565b8015610d8a5780601f10610d5f57610100808354040283529160200191610d8a565b820191906000526020600020905b815481529060010190602001808311610d6d57829003601f168201915b5050505050815260200160028201548152602001600382015481526020016004820160009054906101000a900460ff16151515158152505090508060800151610e08576040517f08c379a0000000000000000000000000000000000000000000000000000000008152600401610dff90613818565b60405180910390fd5b818411610e4a576040517f08c379a0000000000000000000000000000000000000000000000000000000008152600401610e4190613884565b60405180910390fd5b600060086000848152602001908152602001600020600201548260400151610e7291906138d3565b905080341015610eb7576040517f08c379a0000000000000000000000000000000000000000000000000000000008152600401610eae90613953565b60405180910390fd5b610ec084611e5d565b600060076000815480929190610ed590613973565b919050559050610ee53382611ee3565b80600a60003373ffffffffffffffffffffffffffffffffffffffff1673ffffffffffffffffffffffffffffffffffffffff1681526020019081526020016000208190555085600b60008381526020019081526020016000208190555081341115610f9c573373ffffffffffffffffffffffffffffffffffffffff166108fc8334610f6f91906138d3565b9081150290604051600060405180830381858888f19350505050158015610f9a573d6000803e3d6000fd5b505b505050505050565b6000600980549050905090565b610fb96129c3565b6008600083815260200190815260200160002060040160009054906101000a900460ff1661101c576040517f08c379a000000000000000000000000000000000000000000000000000000000815260040161101390613a07565b60405180910390fd5b600860008381526020019081526020016000206040518060a0016040529081600082015481526020016001820180546110549061347a565b80601f01602080910402602001604051908101604052809291908181526020018280546110809061347a565b80156110cd5780601f106110a2576101008083540402835291602001916110cd565b820191906000526020600020905b8154815290600101906020018083116110b057829003601f168201915b5050505050815260200160028201548152602001600382015481526020016004820160009054906101000a900460ff1615151515815250509050919050565b600061111782611b64565b9050919050565b60086020528060005260406000206000915090508060000154908060010180546111479061347a565b80601f01602080910402602001604051908101604052809291908181526020018280546111739061347a565b80156111c05780601f10611195576101008083540402835291602001916111c0565b820191906000526020600020905b8154815290600101906020018083116111a357829003601f168201915b5050505050908060020154908060030154908060040160009054906101000a900460ff16905085565b60008073ffffffffffffffffffffffffffffffffffffffff168273ffffffffffffffffffffffffffffffffffffffff160361125c5760006040517f89c62b640000000000000000000000000000000000000000000000000000000081526004016112539190612d06565b60405180910390fd5b600360008373ffffffffffffffffffffffffffffffffffffffff1673ffffffffffffffffffffffffffffffffffffffff168152602001908152602001600020549050919050565b6112ab611add565b6112b56000611f01565b565b60075481565b6000806000600a60008573ffffffffffffffffffffffffffffffffffffffff1673ffffffffffffffffffffffffffffffffffffffff16815260200190815260200160002054905060008103611319576000809250925050611350565b6000600b60008381526020019081526020016000205490508060086000838152602001908152602001600020600301549350935050505b915091565b6000600660009054906101000a900473ffffffffffffffffffffffffffffffffffffffff16905090565b60606001805461138e9061347a565b80601f01602080910402602001604051908101604052809291908181526020018280546113ba9061347a565b80156114075780601f106113dc57610100808354040283529160200191611407565b820191906000526020600020905b8154815290600101906020018083116113ea57829003601f168201915b5050505050905090565b6000600a60003373ffffffffffffffffffffffffffffffffffffffff1673ffffffffffffffffffffffffffffffffffffffff1681526020019081526020016000205414611493576040517f08c379a000000000000000000000000000000000000000000000000000000000815260040161148a90613a73565b60405180910390fd5b6000600860008381526020019081526020016000206040518060a0016040529081600082015481526020016001820180546114cd9061347a565b80601f01602080910402602001604051908101604052809291908181526020018280546114f99061347a565b80156115465780601f1061151b57610100808354040283529160200191611546565b820191906000526020600020905b81548152906001019060200180831161152957829003601f168201915b5050505050815260200160028201548152602001600382015481526020016004820160009054906101000a900460ff161515151581525050905080608001516115c4576040517f08c379a00000000000000000000000000000000000000000000000000000000081526004016115bb90613adf565b60405180910390fd5b806040015134101561160b576040517f08c379a000000000000000000000000000000000000000000000000000000000815260040161160290613b4b565b60405180910390fd5b60006007600081548092919061162090613973565b9190505590506116303382611ee3565b80600a60003373ffffffffffffffffffffffffffffffffffffffff1673ffffffffffffffffffffffffffffffffffffffff1681526020019081526020016000208190555082600b60008381526020019081526020016000208190555081604001513411156116ef573373ffffffffffffffffffffffffffffffffffffffff166108fc8360400151346116c291906138d3565b9081150290604051600060405180830381858888f193505050501580156116ed573d6000803e3d6000fd5b505b505050565b6117066116ff611c29565b8383611fc7565b5050565b6060600060098054905067ffffffffffffffff81111561172d5761172c613185565b5b60405190808252806020026020018201604052801561176657816020015b6117536129c3565b81526020019060019003908161174b5790505b50905060005b6009805490508110156118ab57600860006009838154811061179157611790613b6b565b5b906000526020600020015481526020019081526020016000206040518060a0016040529081600082015481526020016001820180546117cf9061347a565b80601f01602080910402602001604051908101604052809291908181526020018280546117fb9061347a565b80156118485780601f1061181d57610100808354040283529160200191611848565b820191906000526020600020905b81548152906001019060200180831161182b57829003601f168201915b5050505050815260200160028201548152602001600382015481526020016004820160009054906101000a900460ff16151515158152505082828151811061189357611892613b6b565b5b6020026020010181905250808060010191505061176c565b508091505090565b600a6020528060005260406000206000915090505481565b6118d6848484610a83565b6118ea6118e1611c29565b85858585612136565b50505050565b60606118fb82611b64565b5060006119066122e7565b905060008151116119265760405180602001604052806000815250611951565b80611930846122fe565b604051602001611941929190613bd6565b6040516020818303038152906040525b915050919050565b6000600560008473ffffffffffffffffffffffffffffffffffffffff1673ffffffffffffffffffffffffffffffffffffffff16815260200190815260200160002060008373ffffffffffffffffffffffffffffffffffffffff1673ffffffffffffffffffffffffffffffffffffffff16815260200190815260200160002060009054906101000a900460ff16905092915050565b6119f5611add565b600073ffffffffffffffffffffffffffffffffffffffff168173ffffffffffffffffffffffffffffffffffffffff1603611a675760006040517f1e4fbdf7000000000000000000000000000000000000000000000000000000008152600401611a5e9190612d06565b60405180910390fd5b611a7081611f01565b50565b60007f01ffc9a7000000000000000000000000000000000000000000000000000000007bffffffffffffffffffffffffffffffffffffffffffffffffffffffff1916827bffffffffffffffffffffffffffffffffffffffffffffffffffffffff1916149050919050565b611ae5611c29565b73ffffffffffffffffffffffffffffffffffffffff16611b03611355565b73ffffffffffffffffffffffffffffffffffffffff1614611b6257611b26611c29565b6040517f118cdaa7000000000000000000000000000000000000000000000000000000008152600401611b599190612d06565b60405180910390fd5b565b600080611b70836123cc565b9050600073ffffffffffffffffffffffffffffffffffffffff168173ffffffffffffffffffffffffffffffffffffffff1603611be357826040517f7e273289000000000000000000000000000000000000000000000000000000008152600401611bda9190612def565b60405180910390fd5b80915050919050565b60006004600083815260200190815260200160002060009054906101000a900473ffffffffffffffffffffffffffffffffffffffff169050919050565b600033905090565b611c3e8383836001612409565b505050565b600080611c4f846123cc565b9050600073ffffffffffffffffffffffffffffffffffffffff168373ffffffffffffffffffffffffffffffffffffffff1614611c9157611c908184866125ce565b5b600073ffffffffffffffffffffffffffffffffffffffff168173ffffffffffffffffffffffffffffffffffffffff1614611d2257611cd3600085600080612409565b6001600360008373ffffffffffffffffffffffffffffffffffffffff1673ffffffffffffffffffffffffffffffffffffffff168152602001908152602001600020600082825403925050819055505b600073ffffffffffffffffffffffffffffffffffffffff168573ffffffffffffffffffffffffffffffffffffffff1614611da5576001600360008773ffffffffffffffffffffffffffffffffffffffff1673ffffffffffffffffffffffffffffffffffffffff168152602001908152602001600020600082825401925050819055505b846002600086815260200190815260200160002060006101000a81548173ffffffffffffffffffffffffffffffffffffffff021916908373ffffffffffffffffffffffffffffffffffffffff160217905550838573ffffffffffffffffffffffffffffffffffffffff168273ffffffffffffffffffffffffffffffffffffffff167fddf252ad1be2c89b69c2b068fc378daa952ba7f163c4a11628f55a4df523b3ef60405160405180910390a4809150509392505050565b6000611e6c6000836000611c43565b9050600073ffffffffffffffffffffffffffffffffffffffff168173ffffffffffffffffffffffffffffffffffffffff1603611edf57816040517f7e273289000000000000000000000000000000000000000000000000000000008152600401611ed69190612def565b60405180910390fd5b5050565b611efd828260405180602001604052806000815250612692565b5050565b6000600660009054906101000a900473ffffffffffffffffffffffffffffffffffffffff16905081600660006101000a81548173ffffffffffffffffffffffffffffffffffffffff021916908373ffffffffffffffffffffffffffffffffffffffff1602179055508173ffffffffffffffffffffffffffffffffffffffff168173ffffffffffffffffffffffffffffffffffffffff167f8be0079c531659141344cd1fd0a4f28419497f9722a3daafe3b4186f6b6457e060405160405180910390a35050565b600073ffffffffffffffffffffffffffffffffffffffff168273ffffffffffffffffffffffffffffffffffffffff160361203857816040517f5b08ba1800000000000000000000000000000000000000000000000000000000815260040161202f9190612d06565b60405180910390fd5b80600560008573ffffffffffffffffffffffffffffffffffffffff1673ffffffffffffffffffffffffffffffffffffffff16815260200190815260200160002060008473ffffffffffffffffffffffffffffffffffffffff1673ffffffffffffffffffffffffffffffffffffffff16815260200190815260200160002060006101000a81548160ff0219169083151502179055508173ffffffffffffffffffffffffffffffffffffffff168373ffffffffffffffffffffffffffffffffffffffff167f17307eab39ab6107e8899845ad3d59bd9653f200f220920489ca2b5937696c31836040516121299190612aa8565b60405180910390a3505050565b60008373ffffffffffffffffffffffffffffffffffffffff163b11156122e0578273ffffffffffffffffffffffffffffffffffffffff1663150b7a02868685856040518563ffffffff1660e01b81526004016121959493929190613c4f565b6020604051808303816000875af19250505080156121d157506040513d601f19601f820116820180604052508101906121ce9190613cb0565b60015b612255573d8060008114612201576040519150601f19603f3d011682016040523d82523d6000602084013e612206565b606091505b50600081510361224d57836040517f64a0ae920000000000000000000000000000000000000000000000000000000081526004016122449190612d06565b60405180910390fd5b805160208201fd5b63150b7a0260e01b7bffffffffffffffffffffffffffffffffffffffffffffffffffffffff1916817bffffffffffffffffffffffffffffffffffffffffffffffffffffffff1916146122de57836040517f64a0ae920000000000000000000000000000000000000000000000000000000081526004016122d59190612d06565b60405180910390fd5b505b5050505050565b606060405180602001604052806000815250905090565b60606000600161230d846126b6565b01905060008167ffffffffffffffff81111561232c5761232b613185565b5b6040519080825280601f01601f19166020018201604052801561235e5781602001600182028036833780820191505090505b509050600082602083010190505b6001156123c1578080600190039150507f3031323334353637383961626364656600000000000000000000000000000000600a86061a8153600a85816123b5576123b4613cdd565b5b0494506000850361236c575b819350505050919050565b60006002600083815260200190815260200160002060009054906101000a900473ffffffffffffffffffffffffffffffffffffffff169050919050565b80806124425750600073ffffffffffffffffffffffffffffffffffffffff168273ffffffffffffffffffffffffffffffffffffffff1614155b1561257657600061245284611b64565b9050600073ffffffffffffffffffffffffffffffffffffffff168373ffffffffffffffffffffffffffffffffffffffff16141580156124bd57508273ffffffffffffffffffffffffffffffffffffffff168173ffffffffffffffffffffffffffffffffffffffff1614155b80156124d057506124ce8184611959565b155b1561251257826040517fa9fbf51f0000000000000000000000000000000000000000000000000000000081526004016125099190612d06565b60405180910390fd5b811561257457838573ffffffffffffffffffffffffffffffffffffffff168273ffffffffffffffffffffffffffffffffffffffff167f8c5be1e5ebec7d5bd14f71427d1e84f3dd0314c0f7b2291e5b200ac8c7c3b92560405160405180910390a45b505b836004600085815260200190815260200160002060006101000a81548173ffffffffffffffffffffffffffffffffffffffff021916908373ffffffffffffffffffffffffffffffffffffffff16021790555050505050565b6125d9838383612809565b61268d57600073ffffffffffffffffffffffffffffffffffffffff168373ffffffffffffffffffffffffffffffffffffffff160361264e57806040517f7e2732890000000000000000000000000000000000000000000000000000000081526004016126459190612def565b60405180910390fd5b81816040517f177e802f000000000000000000000000000000000000000000000000000000008152600401612684929190613d0c565b60405180910390fd5b505050565b61269c83836128ca565b6126b16126a7611c29565b6000858585612136565b505050565b600080600090507a184f03e93ff9f4daa797ed6e38ed64bf6a1f0100000000000000008310612714577a184f03e93ff9f4daa797ed6e38ed64bf6a1f010000000000000000838161270a57612709613cdd565b5b0492506040810190505b6d04ee2d6d415b85acef81000000008310612751576d04ee2d6d415b85acef8100000000838161274757612746613cdd565b5b0492506020810190505b662386f26fc10000831061278057662386f26fc10000838161277657612775613cdd565b5b0492506010810190505b6305f5e10083106127a9576305f5e100838161279f5761279e613cdd565b5b0492506008810190505b61271083106127ce5761271083816127c4576127c3613cdd565b5b0492506004810190505b606483106127f157606483816127e7576127e6613cdd565b5b0492506002810190505b600a8310612800576001810190505b80915050919050565b60008073ffffffffffffffffffffffffffffffffffffffff168373ffffffffffffffffffffffffffffffffffffffff16141580156128c157508273ffffffffffffffffffffffffffffffffffffffff168473ffffffffffffffffffffffffffffffffffffffff16148061288257506128818484611959565b5b806128c057508273ffffffffffffffffffffffffffffffffffffffff166128a883611bec565b73ffffffffffffffffffffffffffffffffffffffff16145b5b90509392505050565b600073ffffffffffffffffffffffffffffffffffffffff168273ffffffffffffffffffffffffffffffffffffffff160361293c5760006040517f64a0ae920000000000000000000000000000000000000000000000000000000081526004016129339190612d06565b60405180910390fd5b600061294a83836000611c43565b9050600073ffffffffffffffffffffffffffffffffffffffff168173ffffffffffffffffffffffffffffffffffffffff16146129be5760006040517f73c6ac6e0000000000000000000000000000000000000000000000000000000081526004016129b59190612d06565b60405180910390fd5b505050565b6040518060a00160405280600081526020016060815260200160008152602001600081526020016000151581525090565b6000604051905090565b600080fd5b600080fd5b60007fffffffff0000000000000000000000000000000000000000000000000000000082169050919050565b612a3d81612a08565b8114612a4857600080fd5b50565b600081359050612a5a81612a34565b92915050565b600060208284031215612a7657612a756129fe565b5b6000612a8484828501612a4b565b91505092915050565b60008115159050919050565b612aa281612a8d565b82525050565b6000602082019050612abd6000830184612a99565b92915050565b6000819050919050565b612ad681612ac3565b8114612ae157600080fd5b50565b600081359050612af381612acd565b92915050565b600080fd5b600080fd5b600080fd5b60008083601f840112612b1e57612b1d612af9565b5b8235905067ffffffffffffffff811115612b3b57612b3a612afe565b5b602083019150836001820283011115612b5757612b56612b03565b5b9250929050565b600080600080600060808688031215612b7a57612b796129fe565b5b6000612b8888828901612ae4565b955050602086013567ffffffffffffffff811115612ba957612ba8612a03565b5b612bb588828901612b08565b94509450506040612bc888828901612ae4565b9250506060612bd988828901612ae4565b9150509295509295909350565b600081519050919050565b600082825260208201905092915050565b60005b83811015612c20578082015181840152602081019050612c05565b60008484015250505050565b6000601f19601f8301169050919050565b6000612c4882612be6565b612c528185612bf1565b9350612c62818560208601612c02565b612c6b81612c2c565b840191505092915050565b60006020820190508181036000830152612c908184612c3d565b905092915050565b600060208284031215612cae57612cad6129fe565b5b6000612cbc84828501612ae4565b91505092915050565b600073ffffffffffffffffffffffffffffffffffffffff82169050919050565b6000612cf082612cc5565b9050919050565b612d0081612ce5565b82525050565b6000602082019050612d1b6000830184612cf7565b92915050565b612d2a81612ce5565b8114612d3557600080fd5b50565b600081359050612d4781612d21565b92915050565b60008060408385031215612d6457612d636129fe565b5b6000612d7285828601612d38565b9250506020612d8385828601612ae4565b9150509250929050565b600080600060608486031215612da657612da56129fe565b5b6000612db486828701612d38565b9350506020612dc586828701612d38565b9250506040612dd686828701612ae4565b9150509250925092565b612de981612ac3565b82525050565b6000602082019050612e046000830184612de0565b92915050565b612e1381612ac3565b82525050565b600082825260208201905092915050565b6000612e3582612be6565b612e3f8185612e19565b9350612e4f818560208601612c02565b612e5881612c2c565b840191505092915050565b612e6c81612a8d565b82525050565b600060a083016000830151612e8a6000860182612e0a565b5060208301518482036020860152612ea28282612e2a565b9150506040830151612eb76040860182612e0a565b506060830151612eca6060860182612e0a565b506080830151612edd6080860182612e63565b508091505092915050565b60006020820190508181036000830152612f028184612e72565b905092915050565b600060a082019050612f1f6000830188612de0565b8181036020830152612f318187612c3d565b9050612f406040830186612de0565b612f4d6060830185612de0565b612f5a6080830184612a99565b9695505050505050565b600060208284031215612f7a57612f796129fe565b5b6000612f8884828501612d38565b91505092915050565b6000604082019050612fa66000830185612de0565b612fb36020830184612de0565b9392505050565b612fc381612a8d565b8114612fce57600080fd5b50565b600081359050612fe081612fba565b92915050565b60008060408385031215612ffd57612ffc6129fe565b5b600061300b85828601612d38565b925050602061301c85828601612fd1565b9150509250929050565b600081519050919050565b600082825260208201905092915050565b6000819050602082019050919050565b600060a08301600083015161306a6000860182612e0a565b50602083015184820360208601526130828282612e2a565b91505060408301516130976040860182612e0a565b5060608301516130aa6060860182612e0a565b5060808301516130bd6080860182612e63565b508091505092915050565b60006130d48383613052565b905092915050565b6000602082019050919050565b60006130f482613026565b6130fe8185613031565b93508360208202850161311085613042565b8060005b8581101561314c578484038952815161312d85826130c8565b9450613138836130dc565b925060208a01995050600181019050613114565b50829750879550505050505092915050565b6000602082019050818103600083015261317881846130e9565b905092915050565b600080fd5b7f4e487b7100000000000000000000000000000000000000000000000000000000600052604160045260246000fd5b6131bd82612c2c565b810181811067ffffffffffffffff821117156131dc576131db613185565b5b80604052505050565b60006131ef6129f4565b90506131fb82826131b4565b919050565b600067ffffffffffffffff82111561321b5761321a613185565b5b61322482612c2c565b9050602081019050919050565b82818337600083830152505050565b600061325361324e84613200565b6131e5565b90508281526020810184848401111561326f5761326e613180565b5b61327a848285613231565b509392505050565b600082601f83011261329757613296612af9565b5b81356132a7848260208601613240565b91505092915050565b600080600080608085870312156132ca576132c96129fe565b5b60006132d887828801612d38565b94505060206132e987828801612d38565b93505060406132fa87828801612ae4565b925050606085013567ffffffffffffffff81111561331b5761331a612a03565b5b61332787828801613282565b91505092959194509250565b6000806040838503121561334a576133496129fe565b5b600061335885828601612d38565b925050602061336985828601612d38565b9150509250929050565b7f496e76616c696420706173732049440000000000000000000000000000000000600082015250565b60006133a9600f83612bf1565b91506133b482613373565b602082019050919050565b600060208201905081810360008301526133d88161339c565b9050919050565b7f4e616d6520726571756972656400000000000000000000000000000000000000600082015250565b6000613415600d83612bf1565b9150613420826133df565b602082019050919050565b6000602082019050818103600083015261344481613408565b9050919050565b7f4e487b7100000000000000000000000000000000000000000000000000000000600052602260045260246000fd5b6000600282049050600182168061349257607f821691505b6020821081036134a5576134a461344b565b5b50919050565b60008190508160005260206000209050919050565b60006020601f8301049050919050565b600082821b905092915050565b60006008830261350d7fffffffffffffffffffffffffffffffffffffffffffffffffffffffffffffffff826134d0565b61351786836134d0565b95508019841693508086168417925050509392505050565b6000819050919050565b600061355461354f61354a84612ac3565b61352f565b612ac3565b9050919050565b6000819050919050565b61356e83613539565b61358261357a8261355b565b8484546134dd565b825550505050565b600090565b61359761358a565b6135a2818484613565565b505050565b5b818110156135c6576135bb60008261358f565b6001810190506135a8565b5050565b601f82111561360b576135dc816134ab565b6135e5846134c0565b810160208510156135f4578190505b613608613600856134c0565b8301826135a7565b50505b505050565b600082821c905092915050565b600061362e60001984600802613610565b1980831691505092915050565b6000613647838361361d565b9150826002028217905092915050565b61366082612be6565b67ffffffffffffffff81111561367957613678613185565b5b613683825461347a565b61368e8282856135ca565b600060209050601f8311600181146136c157600084156136af578287015190505b6136b9858261363b565b865550613721565b601f1984166136cf866134ab565b60005b828110156136f7578489015182556001820191506020850194506020810190506136d2565b868310156137145784890151613710601f89168261361d565b8355505b6001600288020188555050505b505050505050565b600060608201905061373e6000830186612cf7565b61374b6020830185612de0565b6137586040830184612cf7565b949350505050565b7f4e6f207061737320746f20757067726164650000000000000000000000000000600082015250565b6000613796601283612bf1565b91506137a182613760565b602082019050919050565b600060208201905081810360008301526137c581613789565b9050919050565b7f4e65772070617373206e6f7420636f6e66696775726564000000000000000000600082015250565b6000613802601783612bf1565b915061380d826137cc565b602082019050919050565b60006020820190508181036000830152613831816137f5565b9050919050565b7f4d757374207570677261646520746f2068696768657220746965720000000000600082015250565b600061386e601b83612bf1565b915061387982613838565b602082019050919050565b6000602082019050818103600083015261389d81613861565b9050919050565b7f4e487b7100000000000000000000000000000000000000000000000000000000600052601160045260246000fd5b60006138de82612ac3565b91506138e983612ac3565b9250828203905081811115613901576139006138a4565b5b92915050565b7f496e73756666696369656e742075706772616465207061796d656e7400000000600082015250565b600061393d601c83612bf1565b915061394882613907565b602082019050919050565b6000602082019050818103600083015261396c81613930565b9050919050565b600061397e82612ac3565b91507fffffffffffffffffffffffffffffffffffffffffffffffffffffffffffffffff82036139b0576139af6138a4565b5b600182019050919050565b7f50617373206e6f7420666f756e64000000000000000000000000000000000000600082015250565b60006139f1600e83612bf1565b91506139fc826139bb565b602082019050919050565b60006020820190508181036000830152613a20816139e4565b9050919050565b7f416c726561647920686176652070617373000000000000000000000000000000600082015250565b6000613a5d601183612bf1565b9150613a6882613a27565b602082019050919050565b60006020820190508181036000830152613a8c81613a50565b9050919050565b7f50617373206e6f7420636f6e6669677572656400000000000000000000000000600082015250565b6000613ac9601383612bf1565b9150613ad482613a93565b602082019050919050565b60006020820190508181036000830152613af881613abc565b9050919050565b7f496e73756666696369656e74207061796d656e74000000000000000000000000600082015250565b6000613b35601483612bf1565b9150613b4082613aff565b602082019050919050565b60006020820190508181036000830152613b6481613b28565b9050919050565b7f4e487b7100000000000000000000000000000000000000000000000000000000600052603260045260246000fd5b600081905092915050565b6000613bb082612be6565b613bba8185613b9a565b9350613bca818560208601612c02565b80840191505092915050565b6000613be28285613ba5565b9150613bee8284613ba5565b91508190509392505050565b600081519050919050565b600082825260208201905092915050565b6000613c2182613bfa565b613c2b8185613c05565b9350613c3b818560208601612c02565b613c4481612c2c565b840191505092915050565b6000608082019050613c646000830187612cf7565b613c716020830186612cf7565b613c7e6040830185612de0565b8181036060830152613c908184613c16565b905095945050505050565b600081519050613caa81612a34565b92915050565b600060208284031215613cc657613cc56129fe565b5b6000613cd484828501613c9b565b91505092915050565b7f4e487b7100000000000000000000000000000000000000000000000000000000600052601260045260246000fd5b6000604082019050613d216000830185612cf7565b613d2e6020830184612de0565b939250505056fea26469706673582212209dd25735405e25bcb68287089fc571ebeb0b00a4ad11c5327f7bb913726f789064736f6c63430008180033",
  "linkReferences": {},
  "deployedLinkReferences": {}
}